:020000040800F2
:10000000F8040020050100084B1200083710000812
:100010004912000871010008F714000800000000F0
:100020000000000000000000000000004F12000867
:1000300073010008000000004D1200085112000872
:100040001F0100081F0100081F0100081F01000810
:100050001F0100081F0100081F0100081F01000800
:100060001F0100081F0100081F0100081F010008F0
:100070001F0100081F0100081F0100081F010008E0
:100080001F0100081F0100081F0100081F010008D0
:100090001F0100081F0100081F0100081F010008C0
:1000A0001F0100081F0100081F0100081F010008B0
:1000B000B51200081F0100081F0100081F010008F9
:1000C0001F0100081F0100081F0100081F01000890
:1000D0001F0100081F0100081F0100081F01000880
:1000E0001F0100081F0100081F010008DFF810D0E1
:1000F00000F02CF800480047A5150008AFF3008079
:10010000F80400200648804706480047FEE7FEE75F
:10011000FEE7FEE7FEE7FEE7FEE7FEE7FEE7FEE7B7
:10012000B3120008ED000008D2B201E000F8012B84
:10013000491EFBD270470022F6E710B513460A4667
:1001400004461946FFF7F0FF204610BD064C074D48
:1001500006E0E06840F0010394E807009847103497
:10016000AC42F6D3FFF7C6FFA4170008C417000877
:10017000FEE7704770B5044600F008F90546601CBC
:1001800002D004480078044400F000F9401BA0426B
:10019000FAD370BD0C0000202DE9F84FDFF8B891BC
:1001A000002409F1040A0AF1040B23460F270BF17E
:1001B000040EC9E00125A5402A40AA427DD1674E20
:1001C000D1F804C0ACEB0608B44532D014DCBCF165
:1001D000030F3AD009DCBCF1000F2AD0BCF1010FAB
:1001E0001CD0BCF1020F31D11DE0BCF1110F17D0B2
:1001F000BCF1120F2AD119E0B8F5881F19D006DC1E
:10020000B8F5803F15D0B8F5801F1FD111E0B8F5C3
:10021000001F0ED0B8F5041F18D10AE0CB6815E016
:10022000CB681B1D12E0CB6808330FE0CB680C33A2
:100230000CE08B682BB1012B4FF0080303D0456114
:1002400004E0042302E0056100E00023FF2A01D856
:10025000064601E000F104064FEA840501D9A5F144
:100260002005D6F8008007FA05FC28EA0C0803FAF6
:1002700005F548EA0508C6F800804D68ED0062D52E
:10028000374DAE6946F00106AE61AD6924F0030654
:1002900005F001050095334D06EB050CDCF8085020
:1002A000A607360F07FA06F825EA0805DFF8B88032
:1002B000404503D14FF0000817E044E0DFF8AC8080
:1002C000404502D14FF001080FE0DFF8A48040451F
:1002D00002D14FF0020808E0DFF89880404502D1D3
:1002E0004FF0030801E04FF0040808FA06F848EA66
:1002F0000508CCF808804D68D9F80060ED034D463C
:1003000001D5164300E096432E604D68DAF8006090
:10031000AD03554601D5164300E096432E604D6867
:10032000DBF80060ED025D4601D5164300E0964320
:100330002E604D68DEF80060AD02754601D51643AB
:1003400000E096432E60641C0D682A46E5407FF469
:1003500031AFBDE8F88F000000040140000011102B
:10036000001002400000014000080140000C014064
:1003700000100140001401408068084000D00120B6
:1003800070470AB1016170470904FBE701488068C2
:10039000704700000C000020024881680278114478
:1003A000816070470C000020074810B5016841F0DB
:1003B00010010160032000F075F8002000F006F83D
:1003C00000F024F8002010BD0020024070B50D4D53
:1003D00004464FF47A712878B1FBF0F00A490968B5
:1003E000B1FBF0F000F0CCFA48B9102C07D2002293
:1003F0002146501E00F036F800206C6070BD0120D0
:1004000070BD00000C000020180000200C4808B54A
:10041000816941F001018161816901F0010100916F
:10042000C16941F08051C161C06900F08050009005
:100430000448416821F0E06141F00071416008BD6D
:100440000010024000000140002809DB00F01F02FC
:10045000012191404009800000F1E020C0F8001126
:1004600070470000F0B40E4B1B680C46C3F3022328
:10047000C3F10705042D00D90425191D072901D250
:10048000002300E0DB1E012606FA05F1491E21408B
:1004900099409E40761E16403143F0BC01F02CB8C6
:1004A0000CED00E0064900F0070208684FF6FF0374
:1004B000184040EA0220034A1043086070470000D9
:1004C0000CED00E00000FA052DE9F0470F460500AD
:1004D00061D0434E306800F00700B84209D230685E
:1004E00020F0070038433060306800F00700B84261
:1004F00051D128683B4C810712D5400703D560686D
:1005000040F4E06060602878000703D5606840F43C
:10051000605060606068A96820F0F0000843606087
:100520002878C00728D06868012810D021680228E0
:1005300010D0890700292EDA616821F003010143F8
:100540006160FFF723FF804641F288390DE02168A2
:100550008903EFE78901EDE7FFF718FFA0EB08013A
:10056000494502D90320BDE8F0876068696800F05A
:100570000C00B0EB810FEFD1306800F00700B842FB
:100580000BD9306820F0070038433060306800F045
:100590000700B84201D00120E5E72878400705D5DB
:1005A0006068E96820F4E06008436060287800072C
:1005B00006D56068296920F4605040EAC100606097
:1005C00000F018F86168084AC1F30311515CC84093
:1005D0000649086006480068FFF7F8FE0020C2E7F9
:1005E000002002400010024094170008180000206C
:1005F0001000002012A185B00FC98DE80F0014A0D3
:10060000144A006804905168134801F00C03042B4D
:1006100010D0082B0ED1C1F38343C9031DF803008A
:100620000AD5516804AAC1F34041515C0A4A5043BB
:10063000B0FBF1F005B0704708494843FAE7000005
:1006400002030405060708090A0B0C0D0E0F101013
:10065000010200000010024000127A0000093D0073
:100660002DE9F84F040070D02078C04DC00749D064
:100670006868C0F38100012807D06868C0F3810072
:10068000022809D16868C00306D52868800339D5D7
:1006900060680028E7D035E06068B0F5803F0BD097
:1006A00010B1B0F5A02F11D0286820F48030286058
:1006B000286820F4802002E0286840F48030286018
:1006C000606890B1FFF762FE06460AE0286840F4D1
:1006D00080202860F0E700BFFFF758FE801B6428E9
:1006E00073D828688003F7D50CE0FFF74FFE064665
:1006F00005E000BFFFF74AFE801B6428F0D8286899
:100700008003F7D420789A4E80074FF001094FF00C
:10071000000839D5686810F00C0F07D06868C0F37E
:100720008100022809D16868C00306D428688007C0
:1007300014D52069012808D110E02069B0B1C6F8AD
:100740000090FFF723FE074605E00AE1FFF71EFED3
:10075000C01B0228C4D828688007F7D528686169BB
:1007600020F0F80040EAC10028600DE0C6F80080E3
:10077000FFF70CFE074604E0FFF708FEC01B022847
:1007800023D828688007F7D4207800072CD579482B
:10079000A169D9B1C0F80090FFF7F8FD074604E061
:1007A000FFF7F4FDC01B02280FD8686A8007F7D551
:1007B00071484FF4FA510068B0FBF1F0009000BFAF
:1007C0000098411E0091FAD20EE080E0C0F800804F
:1007D000FFF7DCFD074604E0FFF7D8FDC01B022849
:1007E00075D8686A8007F7D42078400760D5E86933
:1007F0000027C00008D4E86940F08050E861E8694B
:10080000012700F0805000905C480168C90513D4AE
:100810000168834641F480710160FFF7B7FD8246AD
:1008200006E000BFFFF7B2FDA0EB0A0064284ED837
:10083000DBF80000C005F5D5E06801280AD008B152
:10084000052813D0286A20F001002862286A20F0C9
:10085000040002E0286A40F001002862E06841F2EA
:10086000883B98B1FFF792FD82460BE0286A40F082
:1008700004002862EEE700BFFFF788FDA0EB0A0145
:1008800059455AD8286A8007F6D50CE0FFF77EFD57
:10089000824605E0FFF77AFDA0EB0A0159454CD8E6
:1008A000286A8007F6D41FB1E86920F08050E8611B
:1008B000E06988B36968C1F38101022944D0022844
:1008C000C6F8608004D0FFF761FD044638E034E0EC
:1008D000FFF75CFD074604E0FFF758FDC01B022848
:1008E0002BD828688001F7D4206AB0F5803F05D165
:1008F0006868A16820F4003008436860D4E9080102
:100900000843696821F4741108436860C6F8609070
:10091000FFF73CFD044606E025E000BFFFF736FD8B
:10092000001B022809D828688001F7D51BE000BF0A
:10093000FFF72CFD001B022802D90320BDE8F88F29
:1009400028688001F4D40EE00128F7D06868226A94
:1009500000F48031914204D1616A00F47010884241
:1009600001D00120EAE70020E8E700000010024083
:100970000000424280044242180000200070004003
:1009800010B5401EB0F1807F01D3012010BD4FF0A3
:10099000E02460610F21601700F0AEFD0020A0612F
:1009A00007202061002010BD7047704770B590F897
:1009B0003C20012A26D0012480F83C40022280F805
:1009C0003D2003685A689D6822F070060A68324329
:1009D0005A600D4B02689A4208D0B2F1804F05D0A0
:1009E0000A4B9A4202D00A4B9A4204D1496825F038
:1009F00080031943916080F83D40002180F83C104D
:100A0000084670BD022070BD002C0140000400406B
:100A10000008004010B5040003D094F83D0010B168
:100A200007E0012010BD002084F83C00204600F0C3
:100A30001FF8022084F83D00211D206800F040FCD2
:100A4000012084F8460084F83E0084F83F0084F8D2
:100A5000400084F8410084F8420084F8430084F8A0
:100A6000440084F8450084F83D00002010BD0000DB
:100A700008B50068B0F1804F12D10A48C16941F051
:100A80000101C161C069002200F00100009011461F
:100A90001C20FFF7E7FCBDE808401C20FFF7D4BC92
:100AA00008BD00000010024090F83D10012901D05F
:100AB00001207047022180F83D100168CA6842F0A9
:100AC0000102CA6000680B49884208D0B0F1804F2B
:100AD00005D00949884202D00849884204D181687A
:100AE00001F00701062903D0016841F0010101600E
:100AF00000207047002C0140000400400008004026
:100B000070B5044690F83C00012817D0012584F800
:100B10003C50022084F83D002068826822F0770271
:100B200022F47F4282600868502830D00DDC2028F3
:100B30004DD005DC98B310283BD148E0022070BDB1
:100B4000302844D0402834D139E0602828D070289B
:100B500006D0B0F5805F2CD0B0F5005F29D10AE057
:100B6000CB68D1E90121206800F0EDFB20688168A5
:100B700041F0770109E0CB68D1E90121206800F05C
:100B8000E2FB2068816841F48041816011E0CA681D
:100B90004968206800F08CFC5021206807E016E0CE
:100BA000CA684968206800F094FC6021206800F061
:100BB000D4FB84F83D50002084F83C0070BDCA6826
:100BC0004968206800F074FC40212068EFE7226843
:100BD00001461046EBE7704770B5044600680169AE
:100BE0004FF00005C943890715D4C168C943890777
:100BF00011D4E91E016101202077206880698007F7
:100C0000204602D0FFF7E7FF04E000F0DFF82046BF
:100C100000F08EF9257720680169C943490717D488
:100C2000C168C943490713D46FF004010161022070
:100C300020772068806910F4407F204602D0FFF7BB
:100C4000CAFF04E000F0C2F8204600F071F92577F1
:100C500020680169C943090716D4C168C943090757
:100C600012D46FF008010161042020772068C06968
:100C70008007204602D0FFF7AEFF04E000F0A6F8A0
:100C8000204600F055F9257720680169C943C90657
:100C900017D4C168C943C90613D46FF010010161AC
:100CA000082020772068C06910F4407F204602D0D9
:100CB000FFF791FF04E000F089F8204600F038F9D2
:100CC000257720680169C943C90708D1C168C943AC
:100CD000C90704D1891E0161204600F079F9206816
:100CE0000169C943090609D4C168C943090605D485
:100CF0006FF0800101612046FFF756FE2068016910
:100D0000C943490609D4C168C943490605D46FF0EF
:100D100040010161204600F08DF920680169C94356
:100D200089060BD4C168C943890607D46FF0200136
:100D300001612046BDE87040FFF737BE70BD00007E
:100D400010B586B0002100910191029103911A4CD7
:100D500003681A4902221A48A34219D18B6943F049
:100D600008038B618969039201F008010491302125
:100D7000CDE900126946FFF70FFA1248416821F4E5
:100D8000406141F0E06141F40061416006B010BD96
:100D90000D4CA342FAD18B6943F008038B6189693A
:100DA000039201F008010491C021CDE900126946C7
:100DB000FFF7F2F9EAE700000004004000100240EB
:100DC000000C01400000014000080040704770B571
:100DD000044690F83C000D4601280AD0012084F812
:100DE0003C0042B1042A18D0082A2AD00C2A4DD13E
:100DF00039E0022070BD206800F0B8FA20688169EF
:100E000041F0080181612068816921F0040181615C
:100E1000206881692A69114311E0206800F0CEFA48
:100E20002068816941F4006181612068816921F451
:100E300080618161206881692A6941EA02218161BA
:100E400024E0206800F0E6FA2068C16941F008015A
:100E5000C1612068C16921F00401C1612068C169D4
:100E60002A69114311E0206800F000FB2068C16985
:100E700041F40061C1612068C16921F48061C161F0
:100E80002068C1692A6941EA0221C161002084F811
:100E90003C0070BD10B5040003D094F83D0010B1C3
:100EA00007E0012010BD002084F83C00204600F03F
:100EB0001FF8022084F83D00211D206800F000FA90
:100EC000012084F8460084F83E0084F83F0084F84E
:100ED000400084F8410084F8420084F8430084F81C
:100EE000440084F8450084F83D00002010BD000057
:100EF00008B50C4A01680C48914207D1C16941F01C
:100F00000201C161C06900F0020009E0074A914294
:100F100007D1C16941F00401C161C06900F004005A
:100F2000009008BD0004004000100240000800408E
:100F30007047000010B50446022249B104290ED0C2
:100F4000082913D094F84100012816D0012010BDC3
:100F500094F83E000128F9D184F83E200FE094F87F
:100F60003F000128F2D184F83F2008E094F84000C7
:100F70000128EBD184F8402001E084F841200122CF
:100F8000206800F0D3F90F492068884203D1426CF1
:100F900042F4004242642068884208D0B0F1804F99
:100FA00005D00949884202D00849884204D18168A5
:100FB00001F00701062903D0016841F00101016039
:100FC000002010BD002C014000040040000800403B
:100FD00070B5164D4FF400712846FFF7CDF9144C4B
:100FE000E91420702846FFF7C7F9607029152846D4
:100FF000FFF7C2F9A07001212846FFF7BDF9E41CF4
:10100000022120702846FFF7B7F9607008212846B2
:10101000FFF7B2F9A07010212846FFF7ADF9E07094
:1010200004212846FFF7A8F9207170BD000801408F
:10103000010000207047FEE7F0B585B00024254888
:101040000094019402940394816941F0100181613C
:10105000816901F010010491816941F020018161F1
:10106000816901F020010491816941F004018161ED
:10107000816901F004010491816941F008018161F5
:101080008069154F00F008004FF4005504900022CD
:1010900029463846FFF775F9009502260125039683
:1010A000CDE9015469463846FFF776F8CDE900549A
:1010B0000A4D694602962846FFF76EF840F61E6014
:1010C000CDE90004694628460294FFF765F805B0AB
:1010D000F0BD000000100240001001400008014077
:1010E00010B586B00024174800940194029403942C
:1010F00004944FF08041059401604FF4E151C0E940
:1011000001140121C0E903148461FFF783FC08B1D5
:1011100072B6FEE74FF48050009069460948FFF729
:10112000EFFC08B172B6FEE72020CDE9040404A963
:101130000448FFF73BFC002801D072B6FEE706B07A
:1011400010BD00001C00002010B58AB000240794D8
:101150001C2168460894FEF7EEFF1A481849016002
:101160000821C0E901146421C0E903148461FFF778
:1011700091FE08B172B6FEE7079407A911480894DA
:10118000FFF714FC08B172B6FEE76020CDE9000459
:101190000294002269460B480494FFF718FE08B138
:1011A00072B6FEE7042269460648FFF710FE08B152
:1011B00072B6FEE70348FFF7C3FD0AB010BD00009A
:1011C000000400406400002010B58AB00024079499
:1011D0001C2168460894FEF7AEFF1A4818490160C2
:1011E0000821C0E901146421C0E903148461FFF7F8
:1011F00051FE08B172B6FEE7079407A9114808949A
:10120000FFF7D4FB08B172B6FEE76020CDE9000419
:101210000294002269460B480494FFF7D8FD08B1F8
:1012200072B6FEE7042269460648FFF7D0FD08B112
:1012300072B6FEE70348FFF783FD0AB010BD000059
:1012400000080040AC000020FEE7FEE77047704752
:10125000FFF7A2B830B58FB028216846FEF76BFFC4
:1012600014210AA8FEF767FF01210804CDE9001048
:101270000024029402250491CDE907504FF4E010B8
:1012800009906846FFF7ECF908B172B6FEE70F2047
:10129000CDE90A054FF48060CDE90C4002210AA88F
:1012A0000E94FFF711F9002801D072B6FEE70FB0D7
:1012B00030BD70470148FFF78FBC00001C000020C4
:1012C000F0B50268164B174C174D4FF08047984207
:1012D00005D0B84203D0A04201D0A84203D122F0E9
:1012E00070064A683243984205D0B84203D0A04203
:1012F00001D0A84203D122F44074CA6822434C6949
:1013000022F08002224302608A68C2620A68826216
:10131000984201D10969016301214161F0BD0000DA
:10132000002C0140000400400008004010B501F00E
:101330001F030121046A99408C430462016A9A40A8
:101340001143016210BD10B5846842EA032224F4FF
:101350007F440A432243826010BD826822F07002FB
:101360000A4342F0070181607047000030B5026A0D
:1013700022F001020262026A4368846924F0730564
:101380000C682C4322F002058A682A430A4DA842C1
:101390000BD122F00805CA6823F440732A434D6933
:1013A00022F004021D438B692B434360846149682A
:1013B0004163026230BD0000002C014030B5026A7A
:1013C00022F010020262026A436884690D6824F404
:1013D000E64444EA05248D6822F0200242EA051220
:1013E0000B4DA8420ED1CD6822F0800242EA0512D0
:1013F0004D6923F4406343EA85038D6922F040027E
:1014000043EA85034360846149688163026230BDB9
:10141000002C014030B5026A22F480720262036A35
:101420004268C46923F4007324F073050C682C43EC
:101430008D6843EA05230C4DA8420ED1CD6823F4F4
:10144000006343EA05234D6922F4405242EA051243
:101450008D6923F4806342EA05124260C4614968E1
:10146000C163036230BD0000002C014030B5026A48
:1014700022F480520262046A4268C3690D6823F450
:10148000E64343EA05238D6824F4005444EA053416
:10149000064DA84204D14D6922F4804242EA8512E9
:1014A0004260C36149680164046230BD002C0140A0
:1014B00010B5036A046A24F001040462846924F00C
:1014C000F00444EA021423F00A020A43846102622F
:1014D00010BD10B5036A23F0100303628369046A28
:1014E00023F4704343EA023224F0A00343EA0111DB
:1014F0008261016210BDFEE70907090E002804DBC6
:1015000000F1E02080F80014704700F00F0000F1B7
:10151000E02080F8141D704702E008C8121F08C1BF
:10152000002AFAD170477047002001E001C1121F64
:10153000002AFBD170470000074946200A68506323
:1015400009680020886304493C2248310B689A638B
:1015500009684863704700006400002007480021C4
:10156000421C0170C9B2535C33B1491CC9B201704D
:101570000329F7D3002070470120704700000020A6
:10158000074964200A689063096800204863044999
:101590005C2248310B685A63096888637047000011
:1015A00064000020FEF700FFFFF754FEFFF744FD44
:1015B000FFF7CAFDFFF708FEFFF792FD5748FFF758
:1015C00073FA564800214830FFF7B4FC5348042111
:1015D0004830FFF7AFFC514800219030FFF7AAFCDC
:1015E0004E4804219030FFF7A5FC4D4D4D4F4FF470
:1015F00000564FF4C878EC1C687870B90022314668
:101600003846FEF7BEFEFFF797FF7820FEF7B2FDE3
:1016100000F0AEF84046FEF7ADFDA87870B90022A4
:1016200031463846FEF7ADFEFFF786FF7820FEF71D
:10163000A1FD00F08BF84046FEF79CFD687801287C
:101640001BD1A878012818D1287801280CD10122B3
:1016500031463846FEF795FE00F066F868780128B6
:101660000BD1A878012808D1287830B9002231465A
:101670003846FEF786FEFFF783FFFFF76FFF00286F
:10168000BAD1A07808B9E17811B1617819B10DE04B
:10169000FFF776FFB0E7012808D1E078012805D1EF
:1016A00000F054F84FF4D270FEF764FD207950B981
:1016B000E078012807D1A078012804D100F058F87B
:1016C0004046FEF757FDA07838B9E07801281CD1D4
:1016D00000F03CF85020FEF74DFDA078012814D111
:1016E000E07838B900F044F85A20FEF743FDA078BE
:1016F00001280AD1E078012807D16078012804D1B7
:101700002079012801D100F00FF820780128C1D1FB
:10171000FFF712FFC820FEF72DFD6DE71C0000202B
:101720000100002000100140074950200A68906322
:101730000968002048630449322248310B685A6323
:10174000096888637047000064000020074946204C
:101750000A68906309680020486304493C224831C4
:101760000B689A63096848637047000064000020B2
:10177000074946200A6850630968002088630449C5
:101780003C2248310B685A6309688863704700003F
:1017900064000020000000000000000001020304BB
:1017A00006070809C4170008000000201C000000FC
:1017B00018150008E01700081C000020DC040000D9
:1017C00028150008000100000100000000000000D2
:1017D0000100000010000000000000000024F400E0
:04000005080000ED02
:00000001FF
